:100000004AED00F050ED00F065ED00F06FED00F00E
:100010000AEF00F0C3768CED00F0C3768CED00F0B3
:100020000AEF00F0050E056E0A0E046E000E036E58
:1000300033EF00F0B4A0F3EFFFF01FEF00F0B49047
:10004000B8B0A7EF00F0B4A020EF00F0F3EFFFF09E
:10005000F926810C420C240C180C000C180C240CF2
:10006000420C810C000CC3860401000EFB6F000ED5
:10007000FA6F034428EC00F0C06E80ED00F0042E0F
:1000800047EF00F0052E14EF00F0FCEFFFF0032A1D
:1000900033EF00F00001600EAD6F020EB16F120081
:1000A0000401CE6B006BC68701870401CF6B086B20
:1000B000C78909890401D06B106BC86B0401D36A2E
:1000C000286BCB85CB97298512000201030E3E6F6A
:1000D00002010C0E3F6F02012A0E406F1200D68AF9
:1000E0000301639168936C93D690AF909F80D692F2
:1000F000B490A480D694B890A880D68ED68C1200E6
:10010000FA0E016EF90E006E0000002E84EF00F072
:10011000012E82EF00F01200020E026EFA0E016E46
:10012000F90E006E0000002E92EF00F0012E90EF0D
:1001300000F0022E8EEF00F01200140E006E000090
:10014000002E9FEF00F0012E9DEF00F01200B890FE
:020000040001F9
:10FFD80000EF00F0B8A01AEF00F0A7EF00F0B8901B
:10FFE800B4901000AFA0FEEFFFF0AF9012EF00F05A
:08FFF800D06AAF90AF90100039
:020000040030CA
:10000000EC0D27C79FFFFFFFFFFFFFFFFFFFFFFF75
:10001000FFFFFFFFFFFFFFFFFFFFFFFFFFFFFFFFF0
:03002000FFFFFFE0
:00000001FF
